:020000040800F2
:10000000E05500204D0300083F2500084D2300085F
:100010003D25000885060008CD2D000800000000E1
:100020000000000000000000000000008D02000839
:100030003108000800000000E90200085D290008FE
:1000400067030008670300086703000867030008E8
:1000500067030008670300086703000867030008D8
:1000600067030008670300086703000867030008C8
:100070001D07000867030008290700086703000838
:100080006703000867030008670300089506000877
:100090008906000867030008670300086703000873
:1000A0006703000867030008670300086703000888
:1000B0006703000867030008670300086703000878
:1000C0006703000867030008670300086703000868
:1000D000670300086703000867030008052D000890
:1000E0006703000867030008670300086703000848
:1000F0006703000867030008670300086703000838
:100100006703000867030008670300086703000827
:100110006703000867030008670300086703000817
:100120006703000867030008670300086703000807
:10013000670300086703000867030008AD060008AE
:10014000A1060008670300086703000867030008AA
:1001500067030008670300086703000867030008D7
:1001600067030008670300086703000867030008C7
:100170006703000867030008670300080000000029
:1001800067030008670300086703000867030008A7
:100190006703000867030008670300086703000897
:1001A00000000000000000006703000800F002F8F3
:1001B00000F05CF80AA090E8000C82448344AAF1A5
:1001C0000107DA4501D100F051F8AFF2090EBAE8A3
:1001D0000F0013F0010F18BFFB1A43F0010318477B
:1001E000D8510000F85100000A444FF0000C10F8FC
:1001F000013B13F0070408BF10F8014B1D1108BFA5
:1002000010F8015B641E05D010F8016B641E01F844
:10021000016BF9D113F0080F1EBF10F8014BAD1C94
:100220000C1B09D16D1E58BF01F801CBFAD505E0B2
:1002300014F8016B01F8016B6D1EF9D59142D6D30C
:10024000704700000023002400250026103A28BF34
:1002500078C1FBD8520728BF30C148BF0B60704738
:100260001FB505F04BF81FBD10B510BD00F0D5F956
:100270001146FFF7F5FF03F001F900F0F3F903B4BD
:10028000FFF7F2FF03BC00F0F7F900002C4B1968F0
:100290000868B0E8F04F80F30988BFF36F8F4FF024
:1002A000000080F3118870470000000008480068D3
:1002B000006880F308884FF0000080F3148862B66D
:1002C00061B6BFF34F8FBFF36F8F00DF00BF00BF7A
:1002D00008ED00E0DFF80C00016841F470010160F6
:1002E000704700BF88ED00E0EFF30980BFF36F8F28
:1002F000134B1A681EF0100F08BF20ED108A20E97A
:10030000F04F106009B44FF0500080F31188BFF334
:100310004F8FBFF36F8F04F0C3FA4FF0000080F3EC
:10032000118809BC19680868B0E8F04F1EF0100F7A
:1003300008BFB0EC108A80F30988BFF36F8F704755
:1003400020000020EFF30580704700000948804737
:1003500009480047FEE7FEE7FEE7FEE7FEE7FEE7A7
:10036000FEE7FEE7FEE7FEE704480549054A064BBF
:1003700070470000192A0008AD010008E04F002076
:10038000E0550020E0510020E051002053EA020C2B
:1003900000F069802DE9F04B4FF00006002B1FBFE5
:1003A000B3FA83F503FA05F424FA05F65E4012BFAA
:1003B0001643B2FA82F502FA05F4C5F120051EBF14
:1003C00022FA05FC44EA0C04203556EA044C4FEAB4
:1003D000144418BF641C4FF000084FF0000990420D
:1003E00071EB030C39D3002919BFB1FA81F701FA77
:1003F00007F6B0FA80F700FA07F6C7F120071EBF2C
:1004000020FA07FC46EA0C062037B6FBF4FCA7EB03
:100410000507103F07F01F0BCBF120060CFA0BFB72
:100420002CFA06F644BFB3460026202FA4BF5E4632
:100430004FF0000B5BEA060C08BF4FF0010B19EB05
:100440000B09ABFB027C48EB0608C01B06FB02CC89
:100450000BFB03CC71EB0C01C1E70B460246414696
:100460004846BDE8F08B13B54FF000004FF0000197
:10047000AFF30080BDE81C407047032A40F2308093
:1004800010F0030C00F0158011F8013BBCF1020FD5
:10049000624498BF11F801CB00F8013B38BF11F856
:1004A000013BA2F1040298BF00F801CB38BF00F86D
:1004B000013B11F0030300F02580083AC0F00880EA
:1004C00051F8043B083A51F804CBA0E80810F5E7CE
:1004D000121D5CBF51F8043B40F8043BAFF30080B1
:1004E000D20724BF11F8013B11F801CB48BF11F826
:1004F000012B24BF00F8013B00F801CB48BF00F8F6
:10050000012B704710B5203AC0F00B80B1E81850AD
:10051000203AA0E81850B1E81850A0E81850BFF4ED
:10052000F5AF5FEA027C24BFB1E81850A0E818508C
:1005300044BF18C918C0BDE810405FEA827C24BFE0
:1005400051F8043B40F8043B08BF7047D20728BF6E
:1005500031F8023B48BF11F8012B28BF20F8023BBD
:1005600048BF00F8012B704702F0FF0343EA032263
:1005700042EA024200F02CB84FF0000200B51346E8
:1005800094469646203922BFA0E80C50A0E80C50B3
:10059000B1F12001BFF4F7AF090728BFA0E80C5064
:1005A00048BF0CC05DF804EB890028BF40F8042B5D
:1005B00008BF704748BF20F8022B11F0804F18BFCA
:1005C00000F8012B70477047704770474FF00002EA
:1005D0000429C0F0128010F0030C3FF4CFAFCCF12F
:1005E000040CBCF1020F18BF00F8012BA8BF20F8C3
:1005F000022BA1EB0C01FFF7C1BF5FEAC17C24BF56
:1006000000F8012B00F8012B48BF00F8012B7047C0
:1006100000487047804F002070477546FFF7F8FF8D
:10062000AE4605006946534620F00700854618B0DF
:1006300020B5FFF799FEBDE820404FF000064FF0CF
:1006400000074FF000084FF0000B21F00701AC4607
:10065000ACE8C009ACE8C009ACE8C009ACE8C00926
:100660008D46704710B50446AFF300802046BDE8C4
:100670001040FFF704BE000001491820ABBEFEE7A2
:1006800026000200FEE70000014800F050BA00001A
:1006900058040020014800F04ABA00005804002025
:1006A000014800F044BA000080040020014800F036
:1006B0003EBA0000800400200FB4164A08B56B460D
:1006C0000D99106000209060D060082010610888AB
:1006D000020A114802700A7842704A88120A82702F
:1006E0008A78C2708A88120A02710A794271CA88AD
:1006F000120A82718979C1710246064903A800F085
:10070000ACF803A8009900F09DFB0028F9D101B0D6
:100710005DF814FBF44E00204A040020014800F06C
:1007200003BD0000F8040020014800F0FDBC0000FB
:100730005805002001681823CAB2103AB2FBF3F240
:10074000054B6FF30901032A9B5CC36500D9091DA2
:1007500081650846704700007453000810B50146D3
:1007600000208B698A6A4FF0C07453B1B3F5005F03
:1007700015D072B1012A0CD0022A0AD0032A09D15D
:1007800004E01AB1012A06D0022A03D1C96AC901BC
:1007900000D5012010BDC96AA142FAD010BD002ABF
:1007A000F7D0012AF2D0022AF3D0032AF3D010BDE9
:1007B00070B50468049D666946F040066661046889
:1007C000E66846F01006E660846B2468266826F02A
:1007D000010626600C682468E407F5D104680E68F9
:1007E000241DB4600C68E2600A6813610A685560F1
:1007F00009680A6842F480220A60806B0068016818
:1008000041F00101016070BD30B50468256825F430
:1008100080252560046863608368402B036803D0EB
:1008200099600068C26030BD9A600068C16030BDE8
:10083000704772B6FEE790F82020012A07D0022AFE
:1008400005D0416A41F4802141620120704700686F
:1008500042690A43426100207047F0B590F8205089
:100860000468A468012D05D0022D03D0416A41F42B
:1008700080215DE014F0406F01D1E50055D5C4F34F
:100880000164022C03D9416A41F4000150E00125C2
:10089000A5401D608D684FF4C0739DB1CE6835438F
:1008A0004E6845EAC605066803EB0417F5514FF498
:1008B000C275076805EB04150E697E51097D012993
:1008C00005D009E00E88CD6845EA4655EBE701689A
:1008D0004E5946F480764E511179D579567941EAD0
:1008E000056195792D0445EA062529434FF4C6761E
:1008F000056806EB0416A9511178D57841EA05611F
:10090000957852782D0445EA022211434FF4C475BC
:10091000026805EB04155151006803EB04114258BD
:1009200042F0010242500020F0BD416A41F4001142
:1009300041620120F0BD000010B590F82020012A8E
:1009400007D0022A05D0416A41F48021416201208A
:1009500010BD3B48D0F8002242F00102C0F800224E
:10096000D0F8002222F47C52C0F80022D0F80022F5
:100970004B6A42EA0322C0F800220A7D02F01F03FC
:1009800001229A40D0F81C329343C0F81C32CB6944
:10099000B3B9D0F80C329343C0F80C328C894B6851
:1009A00064F31F434C6900EBC404C4F840320C8963
:1009B0000B6864F31F434C6900EBC404C4F8443271
:1009C000CB69012B16D1D0F80C321343C0F80C328E
:1009D0000C884B6864F31F434C6900EBC404C4F8F3
:1009E00040320C89CB6864F31F434C6900EBC404AC
:1009F000C4F844328B69002BD0F804320ED0134374
:100A0000C0F804320B69002BD0F8143208D013431D
:100A1000C0F81432096A012904D008E09343EFE7D3
:100A20009343F5E7D0F81C121143C0F81C12D0F81C
:100A3000001221F00101C0F80012002010BD0000DA
:100A400000640040704730B590F82040012C05D07C
:100A5000022C03D0416A41F480215DE00468002942
:100A600055D02469A40754D04FF4D874056804EB1A
:100A700001142D5915F00405956005682D594ED0C7
:100A8000ED08556005682C5904F00204D4604FF459
:100A9000DA74056804EB01142D5905F00F05156192
:100AA00005682D59C5F30725956105682C59240C57
:100AB00054614FF4DC72046802EB0112A4581C70FC
:100AC0000468A458240A5C700468A458240C9C7020
:100AD0000468A258120EDA704FF4DE72046802EB5A
:100AE0000112A4581C710468A458240A5C7104689B
:100AF000A458240C9C710468A258120EDA71006884
:100B000081B1016941F020010161002030BDE4683C
:100B1000A8E7416A41F400114162012030BD6D0D2A
:100B20001560AFE7C16841F02001C160EDE72DE934
:100B3000F05F0546006800244669D0F80490876895
:100B4000D0F80CB0D0F810A0D0F81880F10748D039
:100B5000F90714D001218160B80703D5284600F0B9
:100B600082FA0CE0780702D54FF4006407E03807FA
:100B700002D54FF4805402E0284600F073FAF805DD
:100B800016D529684FF480708860B80503D52846CB
:100B900000F06BFA0CE0780502D544F4005407E04D
:100BA000380502D544F4804402E0284600F05CFA9F
:100BB000F80316D529684FF480308860B80303D550
:100BC000284600F054FA0CE0780302D544F40044BF
:100BD00007E0380302D544F4803402E0284600F0F0
:100BE00045FA300707D55FEACB6004D529681020A5
:100BF00044F40074C86070074FF0080707D55FEA37
:100C00000B7004D52868C760284600F0B9F9B00712
:100C100006D52868C068800702D0284600F0B2F9DF
:100C2000700607D55FEACA6004D52968102044F42D
:100C300080640861B00607D55FEA0A7004D52868A9
:100C40000761284600F0DEF9F00606D5286800693D
:100C5000800702D0284600F0D6F9B00308D55FEA35
:100C6000C96005D5296810204860284600F0CCF9F5
:100C7000F00307D55FEA097004D528684760284665
:100C800000F0F6F9300446D55FEA497040D5F0052A
:100C900004D55FEAC87001D044F00104B00504D562
:100CA0005FEA887001D544F00204700504D55FEA5C
:100CB000487001D544F00404300529D518F0700FB0
:100CC00026D008F07000402815D006DC102809D086
:100CD00020280AD0302816D10AE050280ED06028EB
:100CE00011D10EE044F008040DE044F010040AE0D5
:100CF00044F0200407E044F0400404E044F08004A1
:100D000001E044F480742868816921F070018161F8
:100D1000296804204860002C05D0686A2043686276
:100D20002846FFF78FFEBDE8F09F70B5040003D0A2
:100D300094F8200010B104E0012070BD204600F0BE
:100D400091F82068016841F00101016000F07EFC2B
:100D50000546052604E000F079FC401B0A2811D85E
:100D600020684068C007F6D02068016821F00201C1
:100D7000016000F06BFC05460BE000F067FC401BD7
:100D80000A2806D9606A40F40030606284F8206066
:100D9000D2E7206840688007EFD4207E01282068D1
:100DA00001683DD021F080010160607E012820684B
:100DB000016838D021F040010160A07E0128206840
:100DC000016833D021F020010160E07E0128206815
:100DD00001682ED041F010010160207F01282068B9
:100DE000016829D021F008010160607F0128206896
:100DF000016824D021F004010160D4E90201084314
:100E0000D4E90412114308436168491E084321686C
:100E1000C86100206062012084F82000002070BDBD
:100E200041F08001C0E741F04001C5E741F02001F9
:100E3000CAE721F01001CFE741F00801D4E741F003
:100E40000401D9E70346002093F82020012A01D0AD
:100E5000022A05D11A6889069268914300D00120C0
:100E600070470000F0B587B0044614216846FFF7CC
:100E700083FB3E4B3E48DFF8F0E01968D4F800C031
:100E80003B4A03250226092710300024491CF4455B
:100E90002AD11960012907D1016841F00071016070
:100EA000006800F000700590106840F008001060C5
:100EB0001068CDE9005600F00800CDE904706946DD
:100EC0002C48CDE9024500F0A1FA002205211320AB
:100ED00000F062FC132000F051FC002205211420D8
:100EE00000F05AFC14203BE0DFF88CE0F44539D1E7
:100EF000D0F800C04CF0806CC0F800C0D0F800C042
:100F000001290CF0806CCDF814C0196007D101687C
:100F100041F000710160006800F0007005901068F9
:100F200040F002001060106802AB00F00200059073
:100F30004FF44050CDE9000683E8B00069460F4801
:100F400000F064FA002205213F2000F025FC3F203C
:100F500000F014FC00220521402000F01DFC402080
:100F600000F00CFC07B0F0BD006400400C00002055
:100F700030380240000C024000680040000402408B
:100F80007047000030B589B004466B4602AA0021C4
:100F9000FFF759FD154920680124154D884220D1DD
:100FA0000298A0F50070013806D0012807D0022869
:100FB00010D003280BD111E069460E4802E00D481D
:100FC0006946703001F062FF0B4800F072FB2C7034
:100FD00009B030BD07486946E030F3E76946074885
:100FE000F0E707498842F3D16C70F1E700640040F4
:100FF0004804002088020020A8040020D803002014
:1010000000680040704770477047000070B50446A4
:1010100090F82000012804D0606A40F4002060624B
:1010200018E0022084F820002068016821F0010106
:10103000016000F00BFB05460EE000BF00F006FB70
:10104000401B0A2808D9606A40F40030606205201D
:1010500084F82000012070BD20684068C007EDD1F1
:10106000606270BD70477047704770477047704747
:1010700070472DE9F0410446876D00F0E7FA064617
:1010800094F835000025022806D08020606584F899
:1010900034500120BDE8F0812068016821F016017C
:1010A00001602068416921F080014161206C08B92C
:1010B000A06C20B12068016821F00801016020685F
:1010C000016821F0010101600CE000F0BFFA801B13
:1010D000052807D920206065032084F8350084F8AE
:1010E0003450D7E720680068C007EED194F85C1050
:1010F0003F208840B860012084F8350084F83450DF
:101100000020C7E790F83510022903D080214165FF
:1011100001207047052180F835100068016821F032
:1011200001010160002070472DE9F84304464FF0AB
:101130000009CDF8009063484FF41651A56D006882
:10114000B0FBF1F72E6894F85C10082000FA01F16A
:1011500031420FD021680A6852070BD50A6822F085
:1011600004020A6094F85C108840A860606D40F04A
:101170000100606594F85C104FF0010808FA01F076
:10118000304208D021684969090604D5A860606D1D
:1011900040F00200606594F85C1004208840304202
:1011A00008D021680968890704D5A860606D40F0FF
:1011B0000400606594F85C1010208840304218D01C
:1011C00021680968090714D5A860206801684903E7
:1011D00004D50068000308D5A16C07E00168C905C3
:1011E00003D4016821F008010160216C09B1204697
:1011F000884794F85C1020208840304231D0216824
:101200000968C9062DD5A86094F83500052820681E
:10121000016806D0490347D5006800031DD4616CFE
:101220001CE021F0160101602068416921F0800175
:101230004161206C08B9A06C20B12068016821F0E0
:101240000801016094F85C103F208840A86084F891
:10125000358084F83490216D1FE0E16B09B12046A0
:101260008847606D00282BD0606DC00714D0052022
:1012700084F835002068016821F0010101600098C0
:10128000401C0090B84203D820680068C007F6D11F
:1012900084F8358084F83490E16C002910D001B0D6
:1012A0002046BDE8F04308470168C905D5D4016868
:1012B00021F01001016084F8358084F83490CCE787
:1012C000BDE8F8831C0000202DE9F041044600F041
:1012D000BDF906465CB1022084F83500002584F88B
:1012E00034502068016821F0010101600DE0012007
:1012F000BDE8F08100F0AAF9801B052805D920205F
:101300006065032084F83500F2E720680068C007B4
:10131000F0D12268116820480140D4E90103184344
:10132000D4E903363343184363691843A369184368
:10133000E3691843236A18430843616A042903D107
:10134000D4E90B1319430843106020684069666AAA
:1013500020F0070130460E43012704280CD1A06A73
:101360000643E06A40B12046FFF7F8F920B140207B
:10137000606584F83570BAE7206846612046FFF75B
:10138000D9F994F85C203F2191408160656584F82B
:1013900035700020ACE700003F8010F02DE9F041EF
:1013A0000446866D90F83400002501280DD00120F8
:1013B00084F8340094F835700020012F07D084F8A9
:1013C000340002252846BDE8F0810220FBE7022711
:1013D00084F8357060652046FFF716FA94F85C10C3
:1013E0003F208840B0602068016841F0160101602C
:1013F000206C20B12068016841F00801016020687C
:10140000016841F001010160DCE700002DE9F84FBF
:10141000DFF8F8A1002201240AF1040B03254FF0A4
:101420000F090BF1040E00BF0B6804FA02F63340FB
:10143000B34270D10F7907F00307012F01D0022FBB
:1014400016D187684FEA420805FA08FC27EA0C071C
:10145000D1F80CC00CFA08FC4CEA070CC0F808C024
:101460004768B7430E79C6F3001696403E43466080
:101470000E79F643B6070AD0C7684FEA420C05FA60
:101480000CF6B7438E6806FA0CF63E43C6600E793A
:1014900006F00306022E10D1D60800EB8608D8F815
:1014A000206057074FEAD76C09FA0CF7BE430F6963
:1014B00007FA0CF73743C8F8207006684FEA420C69
:1014C00005FA0CF7BE430F7907F0030707FA0CF78C
:1014D000374307604E6816F4403F1CD04C4E3768C7
:1014E00047F480473760366822F0030706F48046E9
:1014F0000096484E07EB060CDCF8086897073F0F8C
:1015000009FA07F826EA0806DFF80C81404503D1FE
:101510004FF0000841E072E0DFF80081404502D161
:101520004FF0010839E0DFF8F880404502D14FF074
:10153000020832E0DFF8EC80404502D14FF00308AA
:101540002BE0DFF8E480404502D14FF0040824E0AE
:10155000DFF8D880404502D14FF005081DE0DFF8E4
:10156000D080404502D14FF0060816E0DFF8C48075
:10157000404502D14FF007080FE0DFF8BC8040453E
:1015800002D14FF0080808E0DFF8B080404502D1F2
:101590004FF0090801E04FF00A0808FA07F848EA96
:1015A0000608CCF80888DAF800605746D1F804C07D
:1015B0009E435FEACC3C00D51E433E60DBF80060F2
:1015C0005F46D1F804C09E435FEA8C3C00D51E43C1
:1015D0003E60DEF800607746D1F804C09E435FEAC3
:1015E000CC2C00D51E433E60084F0C373E68D1F826
:1015F00004C09E435FEA8C2C00D51E433E60521C03
:10160000102AFFF411AFBDE8F88F0000003C014044
:101610004438024000300140000002400004024013
:1016200000080240000C024000100240001402407A
:1016300000180240001C024000200240002402402A
:101640000AB1816170470904FBE700000148806826
:10165000704700001000002070B5040011D0216810
:101660004CF6CC400860216845F255500860D4E93A
:10167000000141602168A0688860FFF7E7FF054628
:101680000DE0012070BD00BFFFF7E0FF401B3128D7
:1016900005D92068C068800701D0032070BD20688C
:1016A000C0688007F0D121684AF6AA2008600020AF
:1016B00070BD00684AF6AA21016000207047000052
:1016C0000248816802781144816070471000002050
:1016D0000B4810B5016841F400710160016841F4E4
:1016E00080610160016841F480710160032000F0B5
:1016F00073F80F2000F006F800F024F8002010BD69
:10170000003C024070B50D4D04464FF47A712878C4
:10171000B1FBF0F00A490968B1FBF0F000F048FBBA
:1017200048B9102C07D200222146501E00F034F890
:1017300000206C6070BD012070BD00001000002012
:101740001C0000200C4882B0016841F48041016017
:10175000006800F4804000900748001F016841F0D5
:10176000805101600068002200F0805000900F213D
:10177000901E02B000F010B844380240002809DB87
:1017800000F01F02012191404009800000F1E0209B
:10179000C0F8001170470000F0B40E4B1B680C46F7
:1017A000C3F30223C3F10705042D00D90425191D35
:1017B000072901D2002300E0DB1E012606FA05F10D
:1017C000491E214099409E40761E16403143F0BC90
:1017D00001F010BB0CED00E0064900F007020868BC
:1017E0004FF6FF03184040EA0220034A1043086006
:1017F000704700000CED00E00000FA052DE9F84309
:101800001748016841F0805101600068154F00F0F1
:101810008050012600903E64FFF718FF05464FF404
:101820007A78114C05E000BFFFF710FF401B4045E0
:101830000DD86068C003F7D57E64FFF707FF054643
:10184000464607E0FFF702FF401BB04202D90320E3
:10185000BDE8F88360688003F4D50020F8E7000055
:101860004038024000000E42007000402DE9F04771
:101870000E46050065D0DFF81481D8F80000F7B2F5
:1018800000F00F00B04207D288F80070D8F80000CE
:1018900000F00F00B04254D128683D4C810712D5AA
:1018A000400703D5206840F4E05020602878000706
:1018B00003D5206840F4604020602068A96820F0CB
:1018C000F000084320602878C0072DD030496868B0
:1018D0000839012812D0022813D0032811D0096832
:1018E000890700292DDA216821F0030101432160D5
:1018F000FFF7ACFE814641F2883A0EE009688903A1
:10190000EFE709688901ECE7FFF7A0FEA0EB09010A
:10191000514502D90320BDE8F0872068696800F0CE
:101920000C00B0EB810FEFD1D8F80010404601F069
:101930000F01B14207D90770006800F00F00B042F4
:1019400001D00120E7E72878400705D52068E9683D
:1019500020F4E050084320602878000706D520686E
:10196000296920F4604040EAC100206000F038F8A6
:101970002168084AC1F30311515CC8400649086058
:1019800006480068FFF7BEFE0020C4E7003C0240A6
:10199000083802407C5300081C000020140000207E
:1019A0000448054900680968044AC1F38221515C72
:1019B000C84070471C000020083802408C530008C3
:1019C0000448054900680968044AC1F34231515C82
:1019D000C84070471C000020083802408C530008A3
:1019E000154810B5006810F00C02144813D01449C3
:1019F000042A0FD0082A0ED10F4C241F2268236816
:101A000002F03F025B0207D52068C0F38810A0FBFC
:101A1000010106E0084610BD2168C1F38811A1FB51
:101A200000010023FEF7B2FC2168C1F30141491C0B
:101A30004900B0FBF1F010BD083802400024F4006A
:101A4000001BB7002DE9F84F04006ED02078DFF8B6
:101A50004C93C007A9F104054AD009F104000168BC
:101A6000C1F38101012908D00068C0F38100022878
:101A70000AD1D9F80000400206D52868800337D57E
:101A800060680028E1D033E06068B0F5803F10D096
:101A9000B0F5A02F286810D020F480302860286886
:101AA00020F4802028606068A8B1FFF7CFFD0646CB
:101AB0000DE0286840F48030F4E740F4802028608E
:101AC000F7E700BFFFF7C2FD801B642873D82868C2
:101AD0008003F7D50CE0FFF7B9FD064605E000BF2F
:101AE000FFF7B4FD801B6428F0D828688003F7D482
:101AF0002078DFF8AC8280074FF0000A3ED5A74877
:101B0000001D016811F00C0F08D00068C0F38100BF
:101B100002280BD1D9F80000400207D428688007BA
:101B200016D5E068012800D112E033E1E068B8B1D1
:101B30000120C8F80000FFF789FD064605E000BF58
:101B4000FFF784FD801B0228C0D828688007F7D5DE
:101B50002868216920F0F80040EAC10028600DE003
:101B6000C8F800A0FFF772FD064604E0FFF76EFD1F
:101B7000801B02281FD828688007F7D42078000728
:101B800022D5864F87486169703771B101210160A4
:101B9000FFF75CFD064604E0FFF758FD801B0228B6
:101BA00009D838688007F7D50EE0C0F800A0FFF725
:101BB0004DFD064605E082E0FFF748FD801B022848
:101BC0007DD838688007F7D42078400768D5DFF8DB
:101BD000CCB100270BF13C0BDBF80000C0000BD4AC
:101BE000DBF8001041F08051CBF80010DBF800006A
:101BF000012700F0805000906B4E3068C00510D473
:101C0000306840F480703060FFF720FD009005E000
:101C1000FFF71CFD0099401A022850D83068C00513
:101C2000F6D55E4EA0686C3601280FD005283068C6
:101C300010D020F001003060306820F004003060E7
:101C4000A068B8B1FFF702FD00900FE0306840F0E7
:101C50000100F4E740F004003060F7E7FFF7F6FC1E
:101C60000099411A41F28830814266D83068800775
:101C7000F4D50EE0FFF7EAFC009007E0FFF7E6FC82
:101C80000099411A41F28830814256D83068800765
:101C9000F4D42FB1DBF8001021F08051CBF8001004
:101CA000A069C8B33D49091D0968C1F38101022932
:101CB0004AD00228504607D0C8F8600000E03CE057
:101CC000FFF7C4FC04463BE04746C8F86000FFF756
:101CD000BDFC064605E000BFFFF7B8FC801B0228EC
:101CE0002BD828688001F7D4D4E907010843A16AFA
:101CF0002E4A490802EB0141626A41EA8211084317
:101D000094F82C1040EA0161C9F8001001203866EF
:101D1000FFF79CFC044606E03EE000BFFFF796FCA0
:101D2000001B022809D828688001F7D534E000BFDD
:101D3000FFF78CFC001B022802D90320BDE8F88FB6
:101D400028688001F4D427E00128F7D0D9F80000F2
:101D5000E26900F4800191421CD1226A00F03F0147
:101D6000914217D147F6C071626A0140B1EB821F00
:101D700010D1A26A4FF0FF3300F4403103EB52025E
:101D8000B1EB024F06D194F82C1000F07060B0EB6C
:101D9000016F01D00120D1E70020CFE704380240D5
:101DA00000004742800E4742007000400000FFFFE5
:101DB00010B5401EB0F1807F01D3012010BD4FF05F
:101DC000E02460610F21601701F014F80020A06189
:101DD00007202061002010BD704790F83C100129B9
:101DE0000BD0012180F83C100168496990F83D2032
:101DF000C1F3C011212A02D00CE00220704749B182
:101E00000168143151E8002F22F0800241E80023DC
:101E1000002BF5D10168496990F83E20C1F380118B
:101E2000222A1ED1E9B101680C3151E8002F22F4B9
:101E3000807241E80023002BF5D10168143151E88C
:101E4000002F22F0010241E80023002BF5D10168A8
:101E5000143151E8002F22F0400241E80023002B0A
:101E6000F5D1002180F83C100846704718B590F86D
:101E70003C10012907D0012180F83C1090F83D105A
:101E8000212902D00BE0022018BD0168143151E86D
:101E9000002F42F0800241E80023002BF5D190F89A
:101EA0003E100023222921D101680A684968009167
:101EB00001680C3151E8002F42F4807241E800249F
:101EC000002CF5D10168143151E8002F42F00102D5
:101ED00041E80024002CF5D10168143151E8002FAD
:101EE00042F0400241E80024002CF5D180F83C305B
:101EF000002018BD70470000F8B501680446086866
:101F0000CA684B6910F00F0F4FF0000559D003F06D
:101F1000010602F49077374365D0C10705D0D1059B
:101F200003D5216C41F001012164410705D5D90792
:101F300003D0216C41F002012164810705D5D90746
:101F400003D0216C41F004012164010707D502F0A0
:101F50002001314303D0216C41F008012164216C40
:101F600000293AD0800604D5900602D5204600F01C
:101F7000E3FD20684069216CC0F38010090700D49C
:101F800060B3204600F0A3FD20684069400621D5DB
:101F90002068143050E8001F21F0400140E8001292
:101FA000002AF5D1A06BA8B16C490165A06BFFF7C1
:101FB000A9F8002811D0A06B016D01B0BDE8F04078
:101FC000084783060FD593060DD52046BDE8F84097
:101FD00000F0B2BD2046FFF78DFFF8BD2046FFF7A9
:101FE00089FF2564F8BD266B2023012E79D1C60612
:101FF00077D5D60675D508684868009048694006C8
:1020000040D5A16B086840680004000CEAD0A28D9E
:102010008242E7D9E085C869B0F5807F2DD020687D
:102020000C3050E8001F21F4807140E80012002AB3
:10203000F5D12068143050E8001F21F0010140E87C
:102040000012002AF5D12068143050E8001F21F05A
:10205000400140E80012002AF5D184F83E302563A3
:1020600020680C3050E8001F21F0100140E80012F9
:10207000002AF5D1A06BFEF7FCFFA08DE18D401A80
:1020800081B229E0A08DE18D401A81B2E08D002857
:10209000A8D00029A6D020680C3050E8002F22F4E8
:1020A000907240E80026002EF5D12068143050E8E8
:1020B000002F22F0010240E80026002EF5D184F81E
:1020C0003E30256320680C3050E8002F22F01002CB
:1020D00040E80023002BF5D12046FFF77DFEF8BD38
:1020E000FFE705062BD5150629D594F83D002128D4
:1020F000F5D1A068B0F5805F01D12069B0B1206A48
:10210000411C2162216800784860E08C401E000478
:10211000000CE084E3D12068C16821F08001C16037
:102120002068C16841F04001C160D8E7206A00889A
:10213000C0F308004860206A801C2062E5E7400682
:10214000CDD55006CBD5CA68204622F04002CA60E1
:1021500084F83D3000F0F8F8C1E70000292A0008B3
:1021600070B5040004D094F83D00002510B106E0DD
:10217000012070BD84F83C50204600F023F8242054
:1021800084F83D002068C16821F40051C1602046F8
:1021900000F032FD2068016921F49041016120685E
:1021A000416921F02A0141612068C16841F4005170
:1021B000C1602564202084F83D0084F83E000020A2
:1021C00070BD00002DE9F04786B006461421684630
:1021D000FEF7D2F93349306888425FD13248002592
:1021E000016841F480210160006800F480200590BE
:1021F0002D481038016841F0080101600068694607
:1022000000F0080005904FF4407000900220CDE9E6
:10221000010503200390072004902448FFF7F6F8F7
:10222000244C23484FF000672060C4E901754FF447
:102230008068C4E9035804F118014FF480794FF421
:10224000403A656181E8200620466562FFF73CF868
:1022500008B1FEF7EEFAB463A663164C1448603476
:102260003030E4E802074020A4E8210144F8145982
:1022700004F1180080E820060E4865626030FFF720
:1022800023F808B1FEF7D5FA746300220521272050
:10229000A663FFF781FA2720FFF770FA06B0BDE8C2
:1022A000F08700000048004040380240000C024027
:1022B00028600240F80400207047000070B5044612
:1022C00090F83D00202836D191B38AB394F83C00B1
:1022D000012830D0012084F83C002162A284E284ED
:1022E00000252564212084F83D00636B1348D863E2
:1022F000636B13481864636B1248D864606B1346B1
:1023000005652668606B321DFFF748F821686FF09D
:102310004000086084F83C502068143050E8001FEA
:1023200041F0800140E80012002AF5D1002070BD84
:10233000FFE70120FBE70220F9E70000832A0008FD
:10234000C52A0008392A000870477047FEE70000D8
:102350000F4810B50D4901600521416000214FF47F
:1023600000328160C0E90312520142610176417678
:102370008176C17601774177FEF7D7FC002803D03C
:10238000BDE81040FEF755BA10BD000000640040E3
:10239000580400200F4810B50D4901600521416027
:1023A00000214FF400328160C0E903125201426102
:1023B000017641768176C17601774177FEF7B5FCEB
:1023C000002803D0BDE81040FEF733BA10BD00006E
:1023D00000680040800400200D4808B5016841F401
:1023E000001101600068002200F400100090052137
:1023F0000C20FFF7D1F90C20FFF7C0F900220521CE
:102400000E20FFF7C9F9BDE808400E20FFF7B6B966
:102410003038024010B50B4A00210B4801F090FA09
:102420000A4C084A002120602432094801F088FA49
:10243000044A606048320021064801F081FAA06039
:1024400010BD0000085300082934000800000020D7
:1024500005370008E132000810B586B0142168463F
:10246000FEF78AF81A48016841F00101016001682D
:1024700001F001010591016841F008010160016866
:1024800001F008010591016841F0800101600168D7
:1024900001F080010591016841F0020101600068CE
:1024A0000C4C00F00200059000223C212046FFF772
:1024B000C7F83C20009001200190022002900320E8
:1024C000039069462046FEF7A1FF06B010BD00004C
:1024D00030380240001C0240094810B5074901602D
:1024E000032141604FF47A618160FFF7B5F800285D
:1024F00003D0BDE81040FEF79CB910BD003000408D
:10250000A80400200C4810B50A4901604FF4E131DD
:102510004160002181600C22C160C0E90412816128
:10252000C161FFF71DFE002803D0BDE81040FEF793
:1025300080B910BD00480040B4040020FEE7FEE76B
:1025400090ED032A80ED022A90EC021A31EE611A16
:1025500080ED031ADFED451AB4EEE01AF1EE10FA41
:1025600002DD71EE610A08E0F1EE600AB4EEE01AF5
:10257000F1EE10FA03D271EE210AC0ED030AD0ED9C
:10258000040AD0ED031A60EEA10AC0ED070A90ED2F
:10259000051A61EE212A90ED081A71EEC21A02EEB8
:1025A000801A80ED081A90ED062A61EE821A21EE5B
:1025B000800A80ED090AD0ED0A1AB1EE612AF4EE24
:1025C000C20AF1EE10FA02D2F0EE420A06E0F4EE90
:1025D000E10AF1EE10FA01DDF0EE610AC0ED070A42
:1025E000D0ED0B1AB1EE612AB4EEC21AF1EE10FA78
:1025F00002D2B0EE421A06E0B4EEE11AF1EE10FAA1
:1026000001DDB0EE611A80ED081AD0ED0C1AB1EEC2
:10261000612AB4EEC20AF1EE10FA02D2B0EE420A1A
:1026200006E0B4EEE10AF1EE10FA01DDB0EE610A67
:1026300070EE810A80ED090A30EE800A80ED0D0A05
:10264000D0ED0E0AB1EE601AB4EEC10AF1EE10FA46
:1026500002D2B0EE410A06E0B4EEE00AF1EE10FA62
:1026600001DDB0EE600A80ED0D0A70470000B44352
:1026700090ED032A80ED022AD0EC020A70EEC11A16
:10268000C0ED031AD0ED040A60EEA10AC0ED070AFE
:1026900090ED051A61EE212A90ED081A71EEC21A2A
:1026A00002EE801A80ED081A90ED062A61EE821A79
:1026B00021EE800A80ED090AD0ED0A1AB1EE612AF6
:1026C000F4EEC20AF1EE10FA02D2F0EE420A06E08F
:1026D000F4EEE10AF1EE10FA01DDF0EE610AC0ED70
:1026E000070AD0ED0B1AB1EE612AB4EEC21AF1EE70
:1026F00010FA02D2B0EE421A06E0B4EEE11AF1EEA0
:1027000010FA01DDB0EE611A80ED081AD0ED0C1A56
:10271000B1EE612AB4EEC20AF1EE10FA02D2B0EEC6
:10272000420A06E0B4EEE10AF1EE10FA01DDB0EE85
:10273000610A70EE810A80ED090A30EE800A80EDB0
:102740000D0AD0ED0E0AB1EE601AB4EEC10AF1EE38
:1027500010FA02D2B0EE410A06E0B4EEE00AF1EE61
:1027600010FA01DDB0EE600A80ED0D0A704700003E
:102770009FED090A80ED000A80ED010A80ED020A52
:1027800080ED030A80ED070A80ED080A80ED090A52
:1027900080ED0D0A704700000000000070B50400D5
:1027A0002BD0207858B1012809D0022807D003285F
:1027B00005D0042803D0052801D0FF281DD1032807
:1027C0005AD01BDC38B301283DD0022815D1E07A5D
:1027D0000A2812D15FF0000004EB4002B2F8012099
:1027E00052BA12B200EE102A01EB8002401CB8EE81
:1027F000C00A042882ED090AEEDB70BD042853D01C
:10280000052853D0FF28F8D1E07A0A28F5D1A0781E
:10281000514D80B354E0E07A0A28EED15FF0000019
:1028200004EB4002B2F8012052BA12B200EE102AB4
:1028300001EB8002401CB8EEC00A042882ED010AB8
:10284000EEDB00202EE0E07A0A28D6D15FF000000F
:1028500004EB4002B2F8012052BA12B200EE102A84
:1028600001EB8002401CB8EEC00A042882ED050A84
:10287000EEDB012016E01BE0E07A0A28BDD1002043
:1028800004EB4002B2F8012052BA12B200EE102A54
:1028900001EB8002401CB8EEC00A042882ED0D0A4C
:1028A000EEDB0220087070BD0320FBE70420F9E78F
:1028B000A07AC00704D1002204212846FEF7C0FEFA
:1028C000207938B9A07AC00604D40022082128460D
:1028D000FEF7B6FEA07938B9607AC00704D10022AD
:1028E00010212846FEF7ACFE207A38B9607AC0067F
:1028F00004D4002220212846FEF7A2FEA078012859
:1029000007D1A07AC00704D0012204212846FEF78F
:1029100097FE2079012807D1A07AC00604D50122AC
:1029200008212846FEF78CFEA079012807D1607A9D
:10293000C00704D0012210212846FEF781FE207A2C
:102940000128B0D1607AC006ADD52846BDE87040F8
:1029500001222021FEF774BE001C024010B5FEF7D4
:10296000AFFE02F015FB012803D0BDE8104002F0D5
:1029700043B810BD30B593B030216846FDF7FCFD7B
:1029800014210CA8FDF7F8FD21480025016841F04D
:1029900080510160006800F0805011901D4801686E
:1029A00041F4404101600068022400F4404011906D
:1029B000092000904FF4803001900120CDE90504FA
:1029C0008005079006200890B420CDE90904042072
:1029D0000B906846FFF736F808B172B6FEE7FEF7CF
:1029E0000DFF08B172B6FEE70CA90F2081E8310097
:1029F0004FF4A0500F904FF48050109005210CA878
:102A0000FEF734FF002801D072B6FEE713B030BDE8
:102A100040380240007000400248016841F47001F3
:102A20000160704788ED00E010B5806B0021C18522
:102A3000C184FFF75FFA10BD70B5846B20684069F0
:102A400094F83D10C0F3C0100025212904D118B11D
:102A5000E584204600F062F82068406994F83E1052
:102A6000C0F38010222904D118B1E585204600F07A
:102A70002EF8206C40F0100020642046FFF73AFA50
:102A800070BD10B50146806B09680968C90516D488
:102A90000021C1840168143151E8002F22F0800226
:102AA00041E80023002BF5D101680C3151E8002FDB
:102AB00042F0400241E80023002BF5D110BDFFF7A2
:102AC00043FC10BD10B5806BFFF73FFC10BD0168E3
:102AD0000C3151E8002F22F4907241E80023002BC2
:102AE000F5D10168143151E8002F22F0010241E8CC
:102AF0000023002BF5D1016B012909D101680C31AC
:102B000051E8002F22F0100241E80023002BF5D1FC
:102B1000202180F83E1000210163704701680C31CC
:102B200051E8002F22F0C00241E80023002BF5D12C
:102B3000202180F83D10704708B590F83E102229FA
:102B400001D0022008BD82684FF480539A4201D11F
:102B5000016921B1816A9A421BD04AB10AE0026838
:102B6000816A5268C2F308020A80816A891C08E0FF
:102B7000026972B10268526802F07F020A70816ACB
:102B8000491C8162C18D491E0904090CC18503D00D
:102B900019E002685268F1E70168CA6822F0200271
:102BA000CA600168CA6822F48072CA6001684A6912
:102BB00022F001024A61202180F83E10016B0129B8
:102BC00003D0FFF779FB002008BD002101630168F5
:102BD0000C3151E8002F22F0100241E80023002BB5
:102BE000F5D101680A68D20602D50A6849680091E1
:102BF000818DFFF7F1F8E6E770B5044600680169DA
:102C0000E26821F44051114301612169A068E26941
:102C100008436169114308432168CA6849F20C639B
:102C20009A430243CA6020684169A26921F4407155
:102C30001143416131492068884202D030498842BD
:102C400002D1FEF7BDFE01E0FEF7AAFEE269002315
:102C5000192164253226B2F5004F626828D0A0FB06
:102C60000101930F9200FDF791FB0146B0FBF5F0D7
:102C70006FF01802504301EB800006EB0010B0FB30
:102C8000F5F000F0F002B1FBF5F002EB0012B1FB41
:102C9000F5F06FF01803584301EB800006EB0010CD
:102CA000B0FBF5F000F00F0021681044886070BDA3
:102CB000A0FB010192185B41FDF768FB0146B0FBE8
:102CC000F5F00201B1FBF5F06FF01803584301EB8A
:102CD000800006EBC000B0FBF5F000F0F80002EB5E
:102CE0004002B1FBF5F0584301EB800006EBC00059
:102CF000B0FBF5F000F00700D6E70000001001403F
:102D00000014014010B500F007F8BDE8104001487C
:102D1000FFF7F2B8B4040020274918B40120087066
:102D2000264800680268920604D501684068009051
:102D300018BC70470268D206FAD502684068204A7B
:102D40000090106803681C0304684FF0180324F017
:102D50000104046016D414686068C0F1180080B2E1
:102D60004880636011680B6843F400230B601168AE
:102D70000A6842F001020A600C28D9D1114901F118
:102D8000440015E010684468C4F11804A4B24C80F3
:102D900043600D48816A21F4002181621068016856
:102DA00041F0010101600C2CC2D1064901F15C0027
:102DB00018BCFFF7F3BC000052040020B40400204C
:102DC000F80400200C4F002000600240FEE70000E5
:102DD00008B51820044B0090A3F1180203490448D9
:102DE000FDF7E6FC08BD0000684F0020F804002055
:102DF000B40400200907090E002804DB00F1E020DC
:102E000080F80014704700F00F0000F1E02080F817
:102E1000141D7047B4EEC10AF1EE10FA02D2B0EE02
:102E2000410A7047B4EEE00AF1EE10FAF9DDB0EEB7
:102E3000600A704700B58BB000200121CDE9060182
:102E400008910090019002900390059004906946CB
:102E50000C48FDF771FD0B48FEF7D8F80221094830
:102E6000FDF7E9FC0E200990059069460648FDF73C
:102E700063FD0548FEF7CAF802210348FDF7DBFCB5
:102E80000BB000BD580400208004002030B50D4672
:102E90000446098890F9270049BA484300EE100A11
:102EA000DFED200A9FED201AB8EEC00A60EE200A7E
:102EB00080EE810ADFED1D0A30EE600A84ED110A12
:102EC00094F826000028204602D000F06FFA01E0B6
:102ED00000F00CFA698894F9270049BA484300B217
:102EE00000EE100AD4ED060A2046B8EEC00A80EEC5
:102EF000201A84ED161A00F031FBA98894F92700F6
:102F000049BA484300B200EE100A94ED031AF8EEF5
:102F1000C00A80EE810AD4ED040A20EE200A84ED76
:102F2000170A30BD0000B44300F8FF4500003443E9
:102F30002DE9F0410F4680465FF00004C4EBC40069
:102F400007EB001508EB840695ED001AD5ED010A94
:102F500096ED020AFFF75EFF85ED120AD5ED020A33
:102F600096ED060A01F066FA641C64B285ED130A58
:102F7000042CE3DBBDE8F0812DE9F0410C462DED9A
:102F8000048B054616460178112003234FF00208F2
:102F900005229FEDA70A052960D2DFE801F00312A0
:102FA0001F2D38002778052F01D0022F56D1217010
:102FB0002A7000216718491C49B278700429F9DB8E
:102FC0004CE02778052F49D121702A70002167181D
:102FD000491C49B278700429F9DB3FE02778042FB7
:102FE0003CD0217085F8008000216718491C49B247
:102FF00078700429F9DB31E0217000202B70014644
:103000002718401C40B279700428F9DB26E02078AC
:1030100004281FD000200127DFED860A86499FED96
:10302000871ADFED871A00BF04EB000C8CF80170E3
:10303000C0EBC00C06EB0C1C401C8CED0B0AC1ED68
:10304000010AC1ED1D0A81ED391A40B2C1ED541AD1
:103050000428E9DB287820700420287020780621D5
:10306000052818D2DFE800F0031829556600002073
:1030700004EB800205EB8003D2ED020A93ED011A06
:10308000401C40B270EE810A0428C2ED020A83EDB2
:10309000010AEDDB217074E05FF0000005EB8002B7
:1030A00004EB8003D2ED050A401CC3ED020A40B2D6
:1030B00082ED050A0428F1DBECE700279FED618A29
:1030C000DFED618AB0EE089ADFED609AC7EBC700CA
:1030D00006EB001090ED040A05EB870060EE080A8D
:1030E00090ED0D0A20EE280A20EE090A00F0B6F84D
:1030F00020EE290A04EB87007F1C80ED0A0A90ED80
:103100000E0A7FB280ED020A042FDFDB84F8008014
:1031100037E0002004EB8001D1ED0E0AC1ED020A78
:1031200005EB8001401C40B281ED0D0A0428F1DB63
:10313000237026E02A706078F3EE0E1A0009DFEDA6
:10314000440A9FED441A9FED442A2BD084ED020AD5
:10315000A07800093BD084ED030A022021184978A9
:10316000090949D004EB800181ED020A401C40B2FC
:103170000428F3DBE078000903D02079000900D0AF
:103180002270002005EB800191ED090A04EB80011B
:10319000401C40B281ED060A0428F3DBBDEC048B31
:1031A000BDE8F08196F9280000EE100AB8EEC00ADA
:1031B00020EE210A60EE200A80EE810AC0EE020AAB
:1031C00094ED0E0A30EE800A84ED020AD2E796F9F9
:1031D000980000EE100AB8EEC00A20EE210A60EE58
:1031E000200A80EE810AC0EE020A94ED0F0A30EE4A
:1031F000800A84ED030ABDE7C0EBC00106EB0111B4
:1032000091F9281002EE901A04EB8001F8EEE22A00
:1032100062EEA12A22EEA03AC3EE012A82EE823AA1
:10322000D1ED0E2A73EE222AC1ED022A9EE700009C
:103230000000000000006643880200200000E64312
:103240000000E6C3CDCCCC3ECDCCCC3DABAAAA3E53
:103250000000B443000070420000FA43B1EE601A6F
:10326000B4EEC10AF1EE10FA02D2B0EE410A704794
:10327000B4EEE00AF1EE10FAF9DDB0EE600A704744
:1032800010B5144C02E000BFFFF7A2FD2078002823
:10329000FAD0114C012204212046FEF7D1F9012277
:1032A00008212046FEF7CCF9012210212046FEF726
:1032B000C7F9012220212046FEF7C2F9074C01E0A0
:1032C000FFF7B8FD20780028FAD0BDE81040FFF7DE
:1032D00003B9000052040020001C024048040020F2
:1032E00010B5012000F0DAFAFBE70000D0ED110A7A
:1032F00090ED100A30EEC00A80ED0F0AB5EEC00A5C
:10330000C0ED100AF1EE10FA02DDF0EE400A01E025
:10331000F1EE400A10EE901A1F4ADFED200A9142AA
:103320000DDD10EE101A914202DD30EE600A06E06B
:1033300010EE101A1A4A914207D930EE200A90ED89
:10334000061AC0EE011AC0ED0F1A90ED0F0A90EDAB
:10335000151A30EE010AB5EEC00AF1EE10FA02DDE0
:10336000B0EE401A01E0B1EE401A11EE102A0D49FC
:103370008A4202DA80ED150A704710EE102A0A4BD5
:103380009A4202D330EE200AF4E710EE102A8A4265
:10339000F2DB30EE600AEDE7000096430000B44334
:1033A000000096C300003443000034C3D0ED110A7E
:1033B00090ED100A30EEC00A80ED0F0AB5EEC00A9B
:1033C000C0ED100AF1EE10FA02DDF0EE400A01E065
:1033D000F1EE400A10EE901A104A91420FDD10EE05
:1033E000101ADFED0F0A914202DD30EE600A06E0AE
:1033F00010EE101A0B4A914207D930EE200AD0ED98
:10340000060A80EE201A80ED0F1A90ED0F0AD0ED1B
:10341000150A30EE200A80ED150A70470000964329
:103420000000B443000096C311490320B3EE0E0A16
:1034300008701049002000BF01EB8002401C40B220
:1034400082ED090A0428F7DB0B49094800F0CCF8A3
:10345000094A07490748FFF78FFD07490448FFF766
:1034600067FD00F001FF022000F025FAECE7000004
:103470008C4E00200C4F002088020020FEF728F917
:10348000FFF778FAFEF7E8FFFEF7A6FFFEF760FF0A
:10349000FEF780FFFFF736F8FFF7F2FE00F022FAA2
:1034A000FEF7B8FF00F030FAFEE7000070B5044602
:1034B0002DED028B164690ED0E0AB0F924009FED1B
:1034C000258A00EE900A0D46F8EEE00AB4EEE00A16
:1034D000F1EE10FA0BD2B5EEC00AF1EE10FA06DBEF
:1034E000F7EE000A30EE200A84ED0E0A01E084EDCA
:1034F0000E8A00EE100AD4ED0E0AB8EEC00AF4EE01
:10350000400AF1EE10FA14D194ED120ADFED120A1E
:1035100085ED000A94ED150A084685ED010A94ED43
:10352000130A85ED0E0AB7EE000AFFF709F884EDDD
:103530000E8A95ED0D0A304686ED000A94ED160AC6
:1035400086ED010AB7EE000ABDEC028BBDE87040C3
:10355000FFF78EB800000000000096435FF0040102
:1035600000EB8102491E92ED160A11F0FF0182ED77
:10357000170AF5D15FF0040100EB8102D0ED0D0ACE
:1035800092ED170AB5EEC00AF1EE10FA01DCB1EEC9
:10359000400A491E30EE800A49B2002980ED0D0A2A
:1035A000EADA90ED170AB5EEC00AF1EE10FA01DC86
:1035B000B1EE400AD0ED070AB4EEE00AF1EE10FADF
:1035C00011DB90ED180AB5EEC00AF1EE10FA01DC3D
:1035D000B1EE400AB4EEE00AF1EE10FA03DB90ED32
:1035E000150A80ED0B0A70472DE9F0470E462DEDC8
:1035F000028B04469FED3F8A0025F0EE088A4FF0CB
:103600007C574FF0100800BFC5EBC50006EB00105B
:1036100004EB8501D0ED150AC1ED0E0A90ED160AF6
:1036200081ED120A90ED1B0A80EE281A81ED161A20
:1036300091ED021A31EE600AB5EEC00AF1EE10FA11
:1036400001DC30EEC10A10EE102ABA420BDC63191D
:103650005A7862B3012A0AD02278022A27D083F846
:10366000018080ED0B8A62195278012A1FD190EDFA
:103670000B0AB5EEC00AF1EE10FA18D06319C5EBCB
:10368000051983F8018080ED158A80ED128A81ED9D
:103690000E8A81ED028A184980ED0B8A01EB8900C0
:1036A000FFF766F8154901EB8900FFF761F86078CC
:1036B000102816D1A078102813D1E078102810D146
:1036C000207910280DD1207802280AD005202070FA
:1036D0000B4880ED018A80ED1D8A80ED398A80EDEE
:1036E000548A6D1C6DB2042D8EDBBDEC028BBDE8DF
:1036F000F08700000000000098010020A8000020D2
:10370000880200202DED028B92B00021DFED5B0AD4
:10371000F1EE041A9FED5A1A9FED5A0A5A48B2EE7A
:10372000048A00F1F00200BFC1EB011400EB840336
:10373000491CC3ED040AC3ED051A83ED061A02EB1A
:10374000840349B283ED048A83ED050A83ED060AFA
:103750000229E9DB0221B2EE002A00BFC1EB01140D
:1037600000EB8403491CC3ED040AC3ED051A83ED85
:10377000061A02EB840349B283ED042A83ED050A9D
:1037800083ED060A0429E9DB4049B0EE0C0ADFF8B4
:10379000009181ED070A81ED230AB1EE000A81ED67
:1037A0003F0A81ED5B0A834692468846A1F5F4758F
:1037B0005FF00004C4EB04100BEB80020AEB800105
:1037C000C4EBC40308EB031017460646FFF76EFE72
:1037D00096F92700D7ED0D0A00EE100AB8EEC00AE0
:1037E00020EE200ABDEEC00A10EE101A25F81410C3
:1037F00099F80020022A02D0032A19D01BE000EE1B
:10380000100A09EB8400B8EEC00AD0ED0A0A20EED7
:10381000200AF0EE080A20EE200ADFED1E0A20EE54
:10382000200AC0EE080ABDEEE00A10EE100A00E021
:10383000002025F81400641C64B2042CBADB20229A
:10384000154908A8FCF75EFE134890F820108DF883
:103850004010406A11901C220BA968460795FCF79E
:1038600051FE0DF1200C4FF400709CE80E00FCF7A7
:1038700023FF022000F01FF89AE700000000C84371
:103880000000484200000000A8000020880200203C
:103890008C4E002000401C465804002010B5EFF369
:1038A000058111B16FF0050403E0002408B100F0B8
:1038B000FDFE204610BD38B50546EFF3058010B17A
:1038C0006FF005040CE0002401F070FB291A009051
:1038D000002903DD684600F00FFF01E06FF00304EC
:1038E000204638BDEFF3058010B16FF0050070473A
:1038F0000448016811B14FF0FF30704701210160A9
:10390000002070477000002010B5EFF3058010B163
:103910006FF0050010BD08480168012902D04FF082
:10392000FF3010BD054A002182F8141D02210160FC
:1039300000F06AFF002010BD700000200BE000E0E6
:103940002DE9FF414FEA01034FF00005EFF3058138
:10395000039549BB40B38027182100244AB3166859
:1039600006B1344696691EB13146761E382E02D213
:103970001679F60703D0002004B0BDE8F08156693F
:1039800006B1B708D2F808C0BCF1000F0DD0D56859
:103990005C2D18D312693AB136B18DE806103A465B
:1039A000214601F0CAFA03900DE0D6685EB91269AB
:1039B0004AB903AACDE90012BAB2214601F090FA41
:1039C000012800D003950398D6E700002DE9F041C7
:1039D000134C0F460546E6682068001D00F032FDD6
:1039E000681C07D137B12168BDE8F0410D48091DB9
:1039F00000F078BD20683544B5424560216805D2A5
:103A0000A06BBDE8F041091D00F054BD606B091DBD
:103A100000F050FDA06A854200D2A562BDE8F081A9
:103A200020000020A80A00202DE9F041054600F002
:103A300065FD2D4CA068401CA06020682B4F10B184
:103A4000606930B32BE02560A068012827D10026EB
:103A500006EB860007EB800000F01EFD761C382E7A
:103A6000F6D3234800F018FD2148143000F014FD6F
:103A70001F48283000F010FD1D483C3000F00CFDC0
:103A80001B48503000F008FD194860631430A063F3
:103A900005E02068E96AC06A884200D82560606A4B
:103AA000401C60626864E86A2169884200D920612C
:103AB00000EB800007EB8000291D00F013FD00F0F3
:103AC0003DFD606900280CD02068E96AC06A884220
:103AD00007D208494FF080500860BFF34F8FBFF303
:103AE0006F8FBDE8F081000020000020F805002065
:103AF000580A002004ED00E038B500F0FFFC104C3F
:103B00002068C8B90F4800F0C7FC0E48143000F018
:103B1000C3FC0C48E060143020610A4B0020F03BED
:103B2000009003F1500210210A2000F07BFF20607A
:103B300010B105A100F084FDBDE8384000F0FEBCE6
:103B40005C000020AC0B0020546D7251000000009E
:103B500030B4026C0B46002A0BD0C1681144C1601E
:103B60008468A14201D30168C16030BC1846FCF7EB
:103B700084BC30BC70472DE9F041856B1746044684
:103B80000026026C82B1C7B1E068FCF776FCE16800
:103B9000206C091AE1602268914202D2A168081AD9
:103BA000E060022F16D017E02068A8B9A06801F0E5
:103BB00067FA06460020A0600EE06068FCF75DFC36
:103BC000216C606808446060A168884204D3206862
:103BD000606001E005B16D1E6D1CA5633046BDE857
:103BE000F08110B5044690F8590058B101280CD066
:103BF00002280FD0502080F31188BFF34F8FBFF3FE
:103C00006F8FFEE7206B00F0ADFC2046BDE8104052
:103C100000F0A8BC10BD000010484FF470514207DE
:103C200006D0C01D0D4920F00700411AC1F57051A2
:103C30000B4A00230144C2E900030839183A21F075
:103C4000070111604B600B600B1AC0E90013936011
:103C50004FF0004053605061704700008C1200200C
:103C60008C000020144E154CA6F29C474FF0805853
:103C7000DFF84C9012E000BF00F040FCF068C5682F
:103C8000281D00F0DFFBA068401EA0606068401E99
:103C9000606000F053FC2846FFF7A3FF606800282F
:103CA000EAD138680128F9D9C9F80080BFF34F8FED
:103CB000BFF36F8FF2E70000940A0020200000207D
:103CC00004ED00E070B51D46049C51B1C4F800201D
:103CD000C4E90F010121204600F0D8FE84F84C50C1
:103CE00070BD2460F4E700002DE9F05F8846DDE94F
:103CF0000B941546834691009A460A9EA522206B96
:103D0000FCF732FC6FF00301206B01EB85010844E6
:103D100020F00707780707D0502080F31188BFF301
:103D20004F8FBFF36F8FFEE70025B8F1000F0FD064
:103D30005FF00000221818F8001082F8341018F80C
:103D4000001011B1401C1028F4D384F8435001E056
:103D500084F83450382E00D33726E662C4E9136560
:103D6000201D00F0A4FB04F1180000F0A0FB24616A
:103D7000C6F138006462A061656584F85850524607
:103D80005946384600F05AFA2060B9F1000F01D0C8
:103D9000C9F80040BDE8F09F30B5114900E0114678
:103DA0000A688242FBD34B685C18844203D14068A6
:103DB00018444860084643681C18944209D1084CCE
:103DC000183C2468A24209D052681A4442600A682A
:103DD00012680260814200D0086030BD0460F9E7DB
:103DE0008C00002070B5002441600B4D00619142B1
:103DF00006D8D11A8269914206D2011D286907E0CE
:103E00009A4203D2994201D3012403E0011DE868DC
:103E100000F050FB204670BD5C00002010B5044649
:103E200000F06CFBA06B28B15FF0000400F086FB93
:103E3000204610BD0124F9E730B589B03C4D6EE055
:103E40000498002806DADDE90601059A90470498EF
:103E5000002864DB069C606910B1201D00F0F2FAB6
:103E600003A800F0D7F8024604980A2857D2DFE8E2
:103E700000F00505052D334A05052D3394F828007B
:103E800040F0010084F828000599A069059B0144D1
:103E90002046FFF7A7FF68B3216A2046884794F8B9
:103EA000280040073BD5002000900598A169002319
:103EB00042181946204601F0EDF9D8B9502080F398
:103EC0001188BFF34F8FBFF36F8FFEE714F8280FF1
:103ED00020F00100207022E094F8280040F001005A
:103EE00084F828000598A06128B18118134620465F
:103EF000FFF778FF13E0502080F31188BFF34F8F56
:103F0000BFF36F8FFEE794F82800810703D42046A3
:103F100000F028FB03E020F0010084F828000022D4
:103F200004A9286800F006FF002889D109B030BD37
:103F30005C0000202DE9FC410F46054600F0A8FC7E
:103F400001A800F067F80446019818B101F010F9D3
:103F5000BDE8FC81254EAFB130690068D0B30027C1
:103F6000291B3A46306800F07FFB01F001F9002878
:103F7000EED11F494FF080500860BFF34F8FBFF361
:103F80006F8FE5E7A542EBD801F0F2F8F06827461D
:103F9000C068C468201D00F055FA94F82800410755
:103FA00019D5A0692B4641193A462046FFF71AFF5A
:103FB000A8B100200346014600902A46204601F0A1
:103FC00069F960B9502080F31188BFF34F8FBFF3B8
:103FD0006F8FFEE707E020F0010084F82800216AD7
:103FE00020468847B4E70127BAE700005C000020BC
:103FF00004ED00E00648416B096829B1416BC968CE
:10400000C9684968816270474FF0FF31FAE70000E4
:104010002000002070B5054600F0C8FF064E04469B
:10402000B068844203D200F009F8012000E00020CB
:1040300028602046B46070BD5C000020F8B5194DC2
:1040400020E0C068C4680668201D00F0FBF9216A02
:104050002046884794F82800400713D5A0693044CB
:10406000B04206D924616060211DE86800F022FAA0
:1040700008E000200346014600903246204601F049
:1040800009F938B1E86801680029DAD12969C5E978
:104090000310F8BD502080F31188BFF34F8FBFF39A
:1040A0006F8FFEE75C00002008484068401C4FF01E
:1040B000500080F3118804D0BFF34F8FBFF36F8F90
:1040C000FEE7BFF34F8FBFF36F8FFEE79400002032
:1040D000074CE068016841B1C0680021D0F80000D9
:1040E000FFF728FFFFF7A8FEF3E701210020F7E71D
:1040F0005C0000202DE9F041044600F0FFF994F93E
:10410000455004F1240609E0606A48B1304600F0E9
:10411000F7FF08B100F03EFB6D1E6DB2002DF3DC21
:104120004FF0FF3684F8456000F008FA00F0E6F939
:1041300094F9445004F1100709E0206948B1384669
:1041400000F0DEFF08B100F025FB6D1E6DB2002D02
:10415000F3DC84F84460BDE8F04100F0EFB9000002
:104160002DE9F0410546002700F092FB324E306801
:1041700008B9FFF751FD706905424ED1C5B3083546
:1041800068070ED005F00700C0F108000544680775
:1041900007D0502080F31188BFF34F8FBFF36F8F8C
:1041A000FEE72DB37068854237D8234818300146A2
:1041B0000C6801E020460C466168A94202D22168E1
:1041C0000029F7D131688C4227D007682168016047
:1041D00060680837411B10290FD96019420708D0C1
:1041E000502080F31188BFF34F8FBFF36F8FFEE72E
:1041F00013E041606560FFF7CFFD61687068401AA9
:104200007060B268904200D2B060706901430020D3
:10421000C4E90001F068401CF06000F0A9FF7807D5
:1042200007D0502080F31188BFF34F8FBFF36F8FFB
:10423000FEE73846BDE8F0817400002010B5031F8A
:104240004FF080741C601B1F21F001011960191FC1
:10425000044B0B6014390A60091F6FF002024438E6
:104260000A6010BDA9400008FEB56F48FDF7FEFDCD
:10427000F0208DF800006D4D02206C4600EBD071EF
:1042800005EB610109782154801C40B20A28F5DB56
:10429000012000212154801C40B20928FADB8DF84E
:1042A000091028788DF80A000A268DF80B600C2278
:1042B00021465D48FEF702F8F1208DF8000000214C
:1042C00002209FED5B0A00BF00EBD072521005EB9D
:1042D0008202D2ED150A60EE800AFDEEE00A10EED1
:1042E000902A2254801C40B20A28EDDB0120421E95
:1042F00002EBD272521005EB8202D2ED160A60EE8A
:10430000800AFDEEE00A10EE902A1212225410EEFE
:10431000902A01FA82F1801C40B209B20928E6DB3A
:10432000080A8DF809008DF80A108DF80B600C2230
:1043300069463D48FDF7C2FFF2208DF800000021DC
:104340005FF0020000EBD072521005EB820292ED9A
:104350000D0ABDEEC00A10EE102A2254801C40B295
:104360000A28EFDB0120421E02EBD272521005EB4D
:10437000820292ED0E0ABDEEC00A10EE102A121251
:10438000225410EE102A01FA82F1801C40B209B2C8
:104390000928E8DB080A8DF809008DF80A108DF865
:1043A0000B600C2269462048FDF788FFF3208DF84A
:1043B000000000215FF0020000EBD072521005EB0C
:1043C000820292ED110ABDEEC00A10EE102A2254AC
:1043D000801C40B20A28EFDB0120421E02EBD272A1
:1043E000521005EB820292ED120ABDEEC00A10EEE9
:1043F000102A1212225410EE102A01FA82F1801CA7
:1044000040B209B20928E8DB080A8DF809008DF8E6
:104410000A108DF80B600C2269460348FDF74EFF29
:104420000148FDF7DAFCFEBDB40400208C4E0020EC
:104430000000C842B4EEE00AF1EE10FA01D3B0EE8B
:10444000600A7047D0E9013201699A60D0E901231E
:104450005A604A68824201D182684A600022026141
:104460000868401E0860086870470000034B03603E
:1044700003F15C000860802010607047D40B0020BE
:10448000044B036003F15C0008604FF4807010601F
:1044900070470000300E002000F108014FF0FF329D
:1044A000C0E90112C1600161002101607047002173
:1044B0000161704730B50B685A1C02D000F1080248
:1044C00002E0026904E02246546825689D42FAD958
:1044D00053684B6099608A60516008610168491CAB
:1044E000016030BD42684A6093688B609368596090
:1044F000916008610168491C01607047502080F399
:104500001188BFF34F8FBFF36F8F0A494868401C73
:10451000486001280CD10848006810F0FF0F07D050
:10452000502080F31188BFF34F8FBFF36F8FFEE7EA
:10453000704700009400002004ED00E0084948683E
:1045400028B1401E486001D180F311887047502087
:1045500080F31188BFF34F8FBFF36F8FFEE700002A
:104560009400002070B500282AD0164DA0F1080450
:1045700060686969084207D1502080F31188BFF351
:104580004F8FBFF36F8FFEE722683AB1502080F360
:104590001188BFF34F8FBFF36F8FFEE788436060D2
:1045A00000F076F960686968084468602046FFF7A3
:1045B000F3FB2869401C2861BDE8704000F0D8BDBD
:1045C00070BD0000740000204FF0E0200021016168
:1045D000816105494FF47A720968B1FBF2F1491E15
:1045E00041610721016170471C00002010B5FBF7F5
:1045F000A9FE114910280ED300F1E02090F8F00335
:104600000A78904207D2502080F31188BFF34F8F71
:10461000BFF36F8FFEE709480068896800F4E06027
:10462000884207D9502080F31188BFF34F8FBFF322
:104630006F8FFEE710BD0000940000200CED00E03D
:1046400010B5084B002200BF53F832401CB1521C79
:10465000082AF9D310BD43F8321003EBC2014860B9
:1046600010BD0000B805002070B515460E46044682
:10467000FFF744FF94F944100020491C01D184F84D
:10468000440094F94510491C01D184F84500FFF716
:1046900055FFA06B28B92A46314604F1240000F0EA
:1046A00097F82046BDE87040FFF724BD10B5020022
:1046B00014D00F48006B38B1502080F31188BFF33D
:1046C0004F8FBFF36F8FFEE700F0E2F80021104636
:1046D000FFF77CF900F04CFD002807D105494FF0A9
:1046E00080500860BFF34F8FBFF36F8F10BD000085
:1046F0002000002004ED00E070B50D4604000BD052
:1047000095B11E4A106BB8B1502080F31188BFF3E9
:104710004F8FBFF36F8FFEE7502080F31188BFF3F8
:104720004F8FBFF36F8FFEE7502080F31188BFF3E8
:104730004F8FBFF36F8FFEE700F0AAF8D2682368AF
:104740005919934204D98B420AD9914202D807E001
:104750008B42FAD9881A21600021FFF737F900E06F
:10476000216000F005FD002807D105494FF0805079
:104770000860BFF34F8FBFF36F8F70BD2000002024
:1047800004ED00E002490A6A0260C96841607047AE
:104790002000002001490120C8617047200000204E
:1047A00010B50C4650B1094909681831FFF782FE6F
:1047B0002046BDE810400121FFF708B9502080F3E2
:1047C0001188BFF34F8FBFF36F8FFEE720000020EB
:1047D00070B514460D4668B10A4909681831FFF7EB
:1047E00081FE0CB14FF0FF3521462846BDE87040F0
:1047F000FFF7ECB8502080F31188BFF34F8FBFF361
:104800006F8FFEE72000002030B587B000240394AE
:1048100005AA04A903A80494FFF728FEDDE9030113
:104820000094CDE90110002315A11748059A00F066
:1048300084FB164D0028E8621FD000F0FBFC012825
:1048400009D0401C19D1502080F31188BFF34F8F3D
:10485000BFF36F8FFEE7502080F31188BFF34F8FB7
:10486000BFF36F8F4FF0FF30A86201206861EC60EA
:1048700007B0BDE8304000F045B807B030BD0000DB
:1048800049444C4500000000653C00082000002021
:104890000248016B491C01637047000020000020A2
:1048A000164810B5016B11B10121C16110BD002185
:1048B000C1610169124A01E0B9B1491E01EB8103EE
:1048C00052F82330002BF7D001EB810302EB830277
:1048D00002F1080453685B685360A34201D15B682E
:1048E0005360DA680260016110BD502080F31188C6
:1048F000BFF34F8FBFF36F8FFEE700002000002053
:10490000F80500201CB537480168374A914207D1A5
:10491000502080F31188BFF34F8FBFF36F8FFEE7F6
:1049200000683149491E884207D1502080F3118820
:10493000BFF34F8FBFF36F8FFEE72C4908780190CC
:10494000FF20087008788DF800009DF800009DF8A1
:10495000002000F0F000904207D0502080F3118832
:10496000BFF34F8FBFF36F8FFEE79DF80000204C21
:1049700000F0500020700720A06005E09DF80020A6
:1049800052008DF80020401E9DF800201206F5D43C
:10499000A060032807D0502080F31188BFF34F8F09
:1049A000BFF36F8FFEE74FF44070A060019808706E
:1049B0000C482030016841F470010160016841F049
:1049C00070410160FFF700FE00206060FBF782FC91
:1049D0000848016841F040410160FBF767FC002096
:1049E0001CBD000000ED00E071C20F4100E400E0DA
:1049F0009400002034EF00E010B5502080F31188BF
:104A0000BFF34F8FBFF36F8F00F0D6FA18B1044990
:104A10004FF080500860002080F3118810BD000026
:104A200004ED00E038B5049D18B153B1CAB181B1AD
:104A300020E0502080F31188BFF34F8FBFF36F8FBA
:104A4000FEE7502080F31188BFF34F8FBFF36F8FC5
:104A5000FEE7502080F31188BFF34F8FBFF36F8FB5
:104A6000FEE739B1502080F31188BFF34F8FBFF3B9
:104A70006F8FFEE750241C46012384F846302B46F6
:104A80000094FFF71FF9204638BD000070B50D46B1
:104A9000040025D0FFF732FDD4E90F20216802FB86
:104AA0000011A1600021A163216861600A46D4E978
:104AB0000F01401E00FB0121E16021464FF0FF3055
:104AC00001F8440F487004F110008DB1FFF7E4FCC9
:104AD00004F12400FFF7E0FCFFF730FD012070BD7A
:104AE000502080F31188BFF34F8FBFF36F8FFEE725
:104AF00021690029F0D000F003FB0028ECD0044924
:104B00004FF080500860BFF34F8FBFF36F8FE3E724
:104B100004ED00E02DE9FF4782B01D468A464FF0C4
:104B20000008040003D0BAF1000F08D011E05020B3
:104B300080F31188BFF34F8FBFF36F8FFEE7206CB8
:104B400038B1502080F31188BFF34F8FBFF36F8FC0
:104B5000FEE7022D0AD1E06B012807D0502080F338
:104B60001188BFF34F8FBFF36F8FFEE700F010FA8D
:104B70003F4F4FF000094FF0805648B9049838B1C4
:104B8000502080F31188BFF34F8FBFF36F8FFEE784
:104B9000FFF7B4FCA06BE16B884207D3022D05D070
:104BA0000498D0B1B8F1000F1AD01EE02A46514641
:104BB0002046FEF7E0FF616A19B104F1240000F01D
:104BC0009FFA20B13E60BFF34F8FBFF36F8FFFF7A7
:104BD000B5FC012006B0BDE8F087FFF7AFFC22E08E
:104BE0006846FFF7CFFD4FF00108FFF7A7FCFFF77E
:104BF0004FFEFFF783FC94F94400401C01D184F878
:104C0000449094F94500401C01D184F84590FFF789
:104C100095FC04A9684600F029F930B12046FFF759
:104C200069FA00F0A5FA0020D4E7FFF767FCA06B53
:104C3000E16B884213D1FFF781FC04F11000049965
:104C4000FFF7AEFD2046FFF755FA00F091FA002875
:104C50009ED13E60BFF34F8FBFF36F8F98E7FFF792
:104C60006DFC2046FFF746FA00F082FA90E700005C
:104C700004ED00E02DE9F0471F4690468946040008
:104C800003D0B9F1000F08D011E0502080F3118853
:104C9000BFF34F8FBFF36F8FFEE7206C38B150200A
:104CA00080F31188BFF34F8FBFF36F8FFEE7022FA2
:104CB0000AD1E06B012807D0502080F31188BFF3A0
:104CC0004F8FBFF36F8FFEE7FFF790FC5020EFF39D
:104CD000118680F31188BFF34F8FBFF36F8FA06BE6
:104CE000E16B884206D3022F04D0002086F311889E
:104CF000BDE8F08794F94550A06B3A4649462046F6
:104D0000FEF739FF681C04D06D1C84F84550012063
:104D1000ECE7606A0028FAD004F1240000F0F0F912
:104D20000028F4D0B8F1000FF1D00121C8F800102C
:104D3000EDE700002DE9F747002683B08A4604001E
:104D400003D0BAF1000F08D011E0502080F3118891
:104D5000BFF34F8FBFF36F8FFEE7206C38B1502049
:104D600080F31188BFF34F8FBFF36F8FFEE700F022
:104D70000FF9DFF8F4804FF000094FF0805748B981
:104D8000059838B1502080F31188BFF34F8FBFF3DF
:104D90006F8FFEE7FFF7B2FBA56BC5B1514620460A
:104DA000FEF7D6FE6D1EA563206950B104F1100018
:104DB00000F0A6F928B1C8F80070BFF34F8FBFF319
:104DC0006F8FFFF7BBFB012006B0BDE8F0870598A9
:104DD00008B11EB106E0FFF7B1FB27E06846FFF718
:104DE000D1FC0126FFF7AAFBFFF752FDFFF786FB78
:104DF00094F94400401C01D184F8449094F9450092
:104E0000401C01D184F84590FFF798FB05A968463E
:104E100000F02CF8002820460AD0FFF76BF900F0CC
:104E2000A7F92046FEF7FAFF0028B3D00020CBE711
:104E3000FEF7F4FF90B104F124000599FFF7B0FCF0
:104E40002046FFF757F900F093F90028A2D1C8F8DF
:104E50000070BFF34F8FBFF36F8F9BE72046FFF7C4
:104E600049F900F085F995E704ED00E02DE9F041FE
:104E70000C46050011D0C4B1FFF740FB174BDA68B0
:104E80006E682068911B471C17D02F681B6A9F42D1
:104E900019D0964217D8012410E0502080F31188D1
:104EA000BFF34F8FBFF36F8FFEE7502080F3118861
:104EB000BFF34F8FBFF36F8FFEE70024FFF73EFB7A
:104EC0002046BDE8F081884205D9401A2060284676
:104ED000FFF758FCF1E700202060DCE7200000200D
:104EE0002DE9FF5F8346DDE90E87994616468A461F
:104EF0009000FFF735F905001CD05C20FFF730F972
:104F0000040014D00020256384F85900CDE9024044
:104F1000CDE900874B46324651465846FEF7E4FE3F
:104F20002046FEF781FD012004B0BDE8F09F284631
:104F3000FFF718FB4FF0FF30F6E7F0B585B0DDE97D
:104F40000B640A9DA6B1DCB15C270097266302269C
:104F500084F85960002604AFCDE90246CDE9005738
:104F6000FEF7C2FE2046FEF75FFD049805B0F0BDD7
:104F7000502080F31188BFF34F8FBFF36F8FFEE790
:104F8000502080F31188BFF34F8FBFF36F8FFEE780
:104F90000548416919B1006B18B100207047012024
:104FA0007047022070470000200000200148C068C0
:104FB00070470000200000202DE9F0412E4C002712
:104FC000206B28B1A069401CA0613846BDE8F08183
:104FD000E668761CE66013D1606B006838B150203B
:104FE00080F31188BFF34F8FBFF36F8FFEE7606BC5
:104FF000A16B6163A063206A401C2062FEF7FAFF88
:10500000A06ADFF87880864209D3606B0068A0B19F
:10501000606BC068C5686868864211D2A06220686B
:10502000C06A00EB800158F82100012800D901274F
:10503000E0690028C9D00127C7E74FF0FF30EDE74E
:10504000281DFFF7FFF9A86A18B105F11800FFF74E
:10505000F9F9E86A2169884200D9206100EB8001F2
:1050600008EB8100291DFFF73DFAE86A2168C96A4B
:105070008842CAD30127C8E720000020F805002095
:1050800070B504004FF0000133D01B4D28688442F6
:1050900007D0502080F31188BFF34F8FBFF36F8F7D
:1050A000FEE7206D38B1401E2065E36CE26A9A424B
:1050B0001FD040B11DE0502080F31188BFF34F8F07
:1050C000BFF36F8FFEE7201DFFF7BCF9E06CE062D5
:1050D000C0F13800A061E06A2969884200D92861DE
:1050E000064900EB800001EB8000211DFFF7FAF973
:1050F0000121084670BD000020000020F8050020B6
:1051000070B5C068C46854B104F118000646FFF7D2
:1051100099F9144D286B50B13146134815E05020D1
:1051200080F31188BFF34F8FBFF36F8FFEE7201D11
:10513000FFF788F9E06A2969884200D928610B499C
:1051400000EB800001EB8000211DFFF7CBF9E06A46
:105150002968C96A884202D90120E86170BD00202F
:1051600070BD000020000020800A0020F80500200B
:105170002DE9F0472C4D00242746286B38B1FFF766
:10518000BDF9286B401E2863286B40B146E05020D3
:1051900080F31188BFF34F8FBFF36F8FFEE7A968CD
:1051A000224E0120D1B3A6F5916980463068E0B166
:1051B000F068C46804F11800FFF744F9201DFFF7F8
:1051C00041F9E06A2969884200D9286100EB800131
:1051D00009EB8100211DFFF785F9E06A2968C96A9A
:1051E0008842E3D3C5F81C80E0E70CB1FEF702FF6C
:1051F000AC694CB14FEA0806FFF7DEFE00B1EE6184
:10520000641EF9D10020A861E86938B10849012776
:1052100038070860BFF34F8FBFF36F8FFFF78EF92A
:105220003846BDE8F087000020000020800A0020FA
:1052300004ED00E010B586B0FEF75EFC114C20686E
:10524000B8B100200390049005AA04A903A8FFF7B1
:1052500017F9DDE9032102208DE8070000230AA1E8
:105260000B48059AFFF769FE606010B106B0012097
:1052700010BD502080F31188BFF34F8FBFF36F8FA5
:10528000FEE700005C000020546D7220537663003E
:10529000D14000082DE9FF411E46134602000A9D39
:1052A0004FF0000016D0144C2768002F0FD0CDE926
:1052B00000130292062917DAFFF76AFE02284FF060
:1052C00000030FD0002269462068FFF723FC04B0DA
:1052D000BDE8F081502080F31188BFF34F8FBFF3FA
:1052E0006F8FFEE72A46EEE70023324669463846CE
:1052F000FFF7C0FCEBE700005C0000204FF04070BF
:10530000E1EE100A70470000A05300080000000002
:10531000000000000000000000000000000200008B
:105320001800000000000000000000009453000876
:10533000000000000000000000000000000000006D
:105340000002000018000000000000000000000043
:10535000AC53000800000000000000000000000046
:105360000000000000020000180000000000000023
:1053700000000000000610160006101600000000D5
:1053800000000000010203040607080900000000F5
:10539000010203046374726C7461736B000000009B
:1053A000696E666F7461736B0000000064657465FC
:1053B00063747461736B0000D85300080000002010
:1053C00058040000E8010008285400085804002090
:1053D0008851000044020008011032018210037954
:1053E00024F41AAA0101368B7A4504691009DA3CC3
:1053F0008BF04104691009B23C1B66C304224313BD
:10540000FA4324401C46272041ABAAAA3E831042FF
:105410001202044901FF01096E701AE6700A8EE655
:0854200070035701FF000000BA
:04000005080001AD41
:00000001FF
